{
  "_format": "hh3-artifact-1",
  "contractName": "MetaCourt",
  "sourceName": "contracts/MetaCourt.sol",
  "abi": [
    {
      "inputs": [],
      "stateMutability": "nonpayable",
      "type": "constructor"
    },
    {
      "anonymous": false,
      "inputs": [
        {
          "indexed": true,
          "internalType": "string",
          "name": "caseId",
          "type": "string"
        },
        {
          "indexed": false,
          "internalType": "string",
          "name": "complaintHash",
          "type": "string"
        },
        {
          "indexed": false,
          "internalType": "uint256",
          "name": "timestamp",
          "type": "uint256"
        }
      ],
      "name": "CaseFiled",
      "type": "event"
    },
    {
      "anonymous": false,
      "inputs": [
        {
          "indexed": true,
          "internalType": "string",
          "name": "caseId",
          "type": "string"
        },
        {
          "indexed": false,
          "internalType": "string",
          "name": "decision",
          "type": "string"
        },
        {
          "indexed": false,
          "internalType": "uint256",
          "name": "timestamp",
          "type": "uint256"
        }
      ],
      "name": "DecisionReached",
      "type": "event"
    },
    {
      "anonymous": false,
      "inputs": [
        {
          "indexed": true,
          "internalType": "string",
          "name": "caseId",
          "type": "string"
        },
        {
          "indexed": false,
          "internalType": "string",
          "name": "vote",
          "type": "string"
        },
        {
          "indexed": false,
          "internalType": "uint256",
          "name": "timestamp",
          "type": "uint256"
        }
      ],
      "name": "VoteCast",
      "type": "event"
    },
    {
      "inputs": [
        {
          "internalType": "string",
          "name": "caseId",
          "type": "string"
        },
        {
          "internalType": "string",
          "name": "vote",
          "type": "string"
        }
      ],
      "name": "castVote",
      "outputs": [],
      "stateMutability": "nonpayable",
      "type": "function"
    },
    {
      "inputs": [
        {
          "internalType": "string",
          "name": "caseId",
          "type": "string"
        },
        {
          "internalType": "string",
          "name": "complaintHash",
          "type": "string"
        }
      ],
      "name": "fileCase",
      "outputs": [],
      "stateMutability": "nonpayable",
      "type": "function"
    },
    {
      "inputs": [
        {
          "internalType": "string",
          "name": "caseId",
          "type": "string"
        }
      ],
      "name": "finalizeDecision",
      "outputs": [],
      "stateMutability": "nonpayable",
      "type": "function"
    },
    {
      "inputs": [
        {
          "internalType": "string",
          "name": "caseId",
          "type": "string"
        }
      ],
      "name": "getCase",
      "outputs": [
        {
          "components": [
            {
              "internalType": "string",
              "name": "caseId",
              "type": "string"
            },
            {
              "internalType": "string",
              "name": "complaintHash",
              "type": "string"
            },
            {
              "internalType": "uint256",
              "name": "validVotes",
              "type": "uint256"
            },
            {
              "internalType": "uint256",
              "name": "invalidVotes",
              "type": "uint256"
            },
            {
              "internalType": "uint256",
              "name": "needsEvidenceVotes",
              "type": "uint256"
            },
            {
              "internalType": "bool",
              "name": "isDecided",
              "type": "bool"
            },
            {
              "internalType": "string",
              "name": "decision",
              "type": "string"
            },
            {
              "internalType": "uint256",
              "name": "filedAt",
              "type": "uint256"
            },
            {
              "internalType": "uint256",
              "name": "decidedAt",
              "type": "uint256"
            }
          ],
          "internalType": "struct MetaCourt.Case",
          "name": "",
          "type": "tuple"
        }
      ],
      "stateMutability": "view",
      "type": "function"
    },
    {
      "inputs": [],
      "name": "getCaseCount",
      "outputs": [
        {
          "internalType": "uint256",
          "name": "",
          "type": "uint256"
        }
      ],
      "stateMutability": "view",
      "type": "function"
    },
    {
      "inputs": [],
      "name": "owner",
      "outputs": [
        {
          "internalType": "address",
          "name": "",
          "type": "address"
        }
      ],
      "stateMutability": "view",
      "type": "function"
    }
  ],
  "bytecode": "0x608060405234801561001057600080fd5b50336000806101000a81548173ffffffffffffffffffffffffffffffffffffffff021916908373ffffffffffffffffffffffffffffffffffffffff160217905550611b32806100606000396000f3fe608060405234801561001057600080fd5b50600436106100625760003560e01c80636c08faf7146100675780638da5cb5b146100855780639d74df76146100a3578063c479fc91146100bf578063d4e06826146100db578063e9e63ac11461010b575b600080fd5b61006f610127565b60405161007c9190610f02565b60405180910390f35b61008d610134565b60405161009a9190610f5e565b60405180910390f35b6100bd60048036038101906100b891906110d3565b610158565b005b6100d960048036038101906100d4919061111c565b6104f9565b005b6100f560048036038101906100f091906110d3565b61087f565b6040516101029190611310565b60405180910390f35b6101256004803603810190610120919061111c565b610b28565b005b6000600380549050905090565b60008054906101000a900473ffffffffffffffffffffffffffffffffffffffff1681565b60008054906101000a900473ffffffffffffffffffffffffffffffffffffffff1673ffffffffffffffffffffffffffffffffffffffff163373ffffffffffffffffffffffffffffffffffffffff16146101e6576040517f08c379a00000000000000000000000000000000000000000000000000000000081526004016101dd9061138f565b60405180910390fd5b806002816040516101f791906113eb565b908152602001604051809103902060009054906101000a900460ff16610252576040517f08c379a00000000000000000000000000000000000000000000000000000000081526004016102499061144e565b60405180910390fd5b8160018160405161026391906113eb565b908152602001604051809103902060050160009054906101000a900460ff16156102c2576040517f08c379a00000000000000000000000000000000000000000000000000000000081526004016102b9906114ba565b60405180910390fd5b60006001846040516102d491906113eb565b9081526020016040518091039020905080600301548160020154118015610302575080600401548160020154115b15610353576040518060400160405280600581526020017f76616c696400000000000000000000000000000000000000000000000000000081525081600601908161034d91906116e6565b5061047b565b80600201548160030154118015610371575080600401548160030154115b156103c2576040518060400160405280600781526020017f696e76616c6964000000000000000000000000000000000000000000000000008152508160060190816103bc91906116e6565b5061047a565b806002015481600401541180156103e0575080600301548160040154115b15610431576040518060400160405280600e81526020017f6e656564735f65766964656e636500000000000000000000000000000000000081525081600601908161042b91906116e6565b50610479565b6040518060400160405280600481526020017f746965640000000000000000000000000000000000000000000000000000000081525081600601908161047791906116e6565b505b5b5b60018160050160006101000a81548160ff021916908315150217905550428160080181905550836040516104af91906113eb565b60405180910390207f031b8f7a8a56994242e4f96a404c7b996e5124bea984042306555727b8f8591582600601426040516104eb92919061183c565b60405180910390a250505050565b60008054906101000a900473ffffffffffffffffffffffffffffffffffffffff1673ffffffffffffffffffffffffffffffffffffffff163373ffffffffffffffffffffffffffffffffffffffff1614610587576040517f08c379a000000000000000000000000000000000000000000000000000000000815260040161057e9061138f565b60405180910390fd5b8160028160405161059891906113eb565b908152602001604051809103902060009054906101000a900460ff166105f3576040517f08c379a00000000000000000000000000000000000000000000000000000000081526004016105ea9061144e565b60405180910390fd5b8260018160405161060491906113eb565b908152602001604051809103902060050160009054906101000a900460ff1615610663576040517f08c379a000000000000000000000000000000000000000000000000000000000815260040161065a906114ba565b60405180910390fd5b6000838051906020012090506040518060400160405280600581526020017f76616c69640000000000000000000000000000000000000000000000000000008152508051906020012081036106ee576001856040516106c291906113eb565b908152602001604051809103902060020160008154809291906106e49061189b565b9190505550610829565b6040518060400160405280600781526020017f696e76616c69640000000000000000000000000000000000000000000000000081525080519060200120810361076d5760018560405161074191906113eb565b908152602001604051809103902060030160008154809291906107639061189b565b9190505550610828565b6040518060400160405280600e81526020017f6e656564735f65766964656e63650000000000000000000000000000000000008152508051906020012081036107ec576001856040516107c091906113eb565b908152602001604051809103902060040160008154809291906107e29061189b565b9190505550610827565b6040517f08c379a000000000000000000000000000000000000000000000000000000000815260040161081e9061192f565b60405180910390fd5b5b5b8460405161083791906113eb565b60405180910390207f300451be589b5091fe2ef895851d79bdefbb52597e6954e4449b652ab2f08cf48542604051610870929190611988565b60405180910390a25050505050565b610887610e9b565b8160028160405161089891906113eb565b908152602001604051809103902060009054906101000a900460ff166108f3576040517f08c379a00000000000000000000000000000000000000000000000000000000081526004016108ea9061144e565b60405180910390fd5b60018360405161090391906113eb565b90815260200160405180910390206040518061012001604052908160008201805461092d90611509565b80601f016020809104026020016040519081016040528092919081815260200182805461095990611509565b80156109a65780601f1061097b576101008083540402835291602001916109a6565b820191906000526020600020905b81548152906001019060200180831161098957829003601f168201915b505050505081526020016001820180546109bf90611509565b80601f01602080910402602001604051908101604052809291908181526020018280546109eb90611509565b8015610a385780601f10610a0d57610100808354040283529160200191610a38565b820191906000526020600020905b815481529060010190602001808311610a1b57829003601f168201915b505050505081526020016002820154815260200160038201548152602001600482015481526020016005820160009054906101000a900460ff16151515158152602001600682018054610a8a90611509565b80601f0160208091040260200160405190810160405280929190818152602001828054610ab690611509565b8015610b035780601f10610ad857610100808354040283529160200191610b03565b820191906000526020600020905b815481529060010190602001808311610ae657829003601f168201915b5050505050815260200160078201548152602001600882015481525050915050919050565b60008054906101000a900473ffffffffffffffffffffffffffffffffffffffff1673ffffffffffffffffffffffffffffffffffffffff163373ffffffffffffffffffffffffffffffffffffffff1614610bb6576040517f08c379a0000000000000000000000000000000000000000000000000000000008152600401610bad9061138f565b60405180910390fd5b600282604051610bc691906113eb565b908152602001604051809103902060009054906101000a900460ff1615610c22576040517f08c379a0000000000000000000000000000000000000000000000000000000008152600401610c1990611a04565b60405180910390fd5b6000825111610c66576040517f08c379a0000000000000000000000000000000000000000000000000000000008152600401610c5d90611a70565b60405180910390fd5b6000815111610caa576040517f08c379a0000000000000000000000000000000000000000000000000000000008152600401610ca190611adc565b60405180910390fd5b6040518061012001604052808381526020018281526020016000815260200160008152602001600081526020016000151581526020016040518060400160405280600781526020017f70656e64696e670000000000000000000000000000000000000000000000000081525081526020014281526020016000815250600183604051610d3691906113eb565b90815260200160405180910390206000820151816000019081610d5991906116e6565b506020820151816001019081610d6f91906116e6565b5060408201518160020155606082015181600301556080820151816004015560a08201518160050160006101000a81548160ff02191690831515021790555060c0820151816006019081610dc391906116e6565b5060e0820151816007015561010082015181600801559050506001600283604051610dee91906113eb565b908152602001604051809103902060006101000a81548160ff021916908315150217905550600382908060018154018082558091505060019003906000526020600020016000909190919091509081610e4791906116e6565b5081604051610e5691906113eb565b60405180910390207f4936f81e3ba02847f75dcad53c865bb75c8da9518a9ed9fffc48bfca794928e78242604051610e8f929190611988565b60405180910390a25050565b60405180610120016040528060608152602001606081526020016000815260200160008152602001600081526020016000151581526020016060815260200160008152602001600081525090565b6000819050919050565b610efc81610ee9565b82525050565b6000602082019050610f176000830184610ef3565b92915050565b600073ffffffffffffffffffffffffffffffffffffffff82169050919050565b6000610f4882610f1d565b9050919050565b610f5881610f3d565b82525050565b6000602082019050610f736000830184610f4f565b92915050565b6000604051905090565b600080fd5b600080fd5b600080fd5b600080fd5b6000601f19601f8301169050919050565b7f4e487b7100000000000000000000000000000000000000000000000000000000600052604160045260246000fd5b610fe082610f97565b810181811067ffffffffffffffff82111715610fff57610ffe610fa8565b5b80604052505050565b6000611012610f79565b905061101e8282610fd7565b919050565b600067ffffffffffffffff82111561103e5761103d610fa8565b5b61104782610f97565b9050602081019050919050565b82818337600083830152505050565b600061107661107184611023565b611008565b90508281526020810184848401111561109257611091610f92565b5b61109d848285611054565b509392505050565b600082601f8301126110ba576110b9610f8d565b5b81356110ca848260208601611063565b91505092915050565b6000602082840312156110e9576110e8610f83565b5b600082013567ffffffffffffffff81111561110757611106610f88565b5b611113848285016110a5565b91505092915050565b6000806040838503121561113357611132610f83565b5b600083013567ffffffffffffffff81111561115157611150610f88565b5b61115d858286016110a5565b925050602083013567ffffffffffffffff81111561117e5761117d610f88565b5b61118a858286016110a5565b9150509250929050565b600081519050919050565b600082825260208201905092915050565b60005b838110156111ce5780820151818401526020810190506111b3565b60008484015250505050565b60006111e582611194565b6111ef818561119f565b93506111ff8185602086016111b0565b61120881610f97565b840191505092915050565b61121c81610ee9565b82525050565b60008115159050919050565b61123781611222565b82525050565b600061012083016000830151848203600086015261125b82826111da565b9150506020830151848203602086015261127582826111da565b915050604083015161128a6040860182611213565b50606083015161129d6060860182611213565b5060808301516112b06080860182611213565b5060a08301516112c360a086018261122e565b5060c083015184820360c08601526112db82826111da565b91505060e08301516112f060e0860182611213565b50610100830151611305610100860182611213565b508091505092915050565b6000602082019050818103600083015261132a818461123d565b905092915050565b600082825260208201905092915050565b7f4e6f7420617574686f72697a6564000000000000000000000000000000000000600082015250565b6000611379600e83611332565b915061138482611343565b602082019050919050565b600060208201905081810360008301526113a88161136c565b9050919050565b600081905092915050565b60006113c582611194565b6113cf81856113af565b93506113df8185602086016111b0565b80840191505092915050565b60006113f782846113ba565b915081905092915050565b7f4361736520646f6573206e6f7420657869737400000000000000000000000000600082015250565b6000611438601383611332565b915061144382611402565b602082019050919050565b600060208201905081810360008301526114678161142b565b9050919050565b7f4361736520616c72656164792064656369646564000000000000000000000000600082015250565b60006114a4601483611332565b91506114af8261146e565b602082019050919050565b600060208201905081810360008301526114d381611497565b9050919050565b7f4e487b7100000000000000000000000000000000000000000000000000000000600052602260045260246000fd5b6000600282049050600182168061152157607f821691505b602082108103611534576115336114da565b5b50919050565b60008190508160005260206000209050919050565b60006020601f8301049050919050565b600082821b905092915050565b60006008830261159c7fffffffffffffffffffffffffffffffffffffffffffffffffffffffffffffffff8261155f565b6115a6868361155f565b95508019841693508086168417925050509392505050565b6000819050919050565b60006115e36115de6115d984610ee9565b6115be565b610ee9565b9050919050565b6000819050919050565b6115fd836115c8565b611611611609826115ea565b84845461156c565b825550505050565b600090565b611626611619565b6116318184846115f4565b505050565b5b818110156116555761164a60008261161e565b600181019050611637565b5050565b601f82111561169a5761166b8161153a565b6116748461154f565b81016020851015611683578190505b61169761168f8561154f565b830182611636565b50505b505050565b600082821c905092915050565b60006116bd6000198460080261169f565b1980831691505092915050565b60006116d683836116ac565b9150826002028217905092915050565b6116ef82611194565b67ffffffffffffffff81111561170857611707610fa8565b5b6117128254611509565b61171d828285611659565b600060209050601f831160018114611750576000841561173e578287015190505b61174885826116ca565b8655506117b0565b601f19841661175e8661153a565b60005b8281101561178657848901518255600182019150602085019450602081019050611761565b868310156117a3578489015161179f601f8916826116ac565b8355505b6001600288020188555050505b505050505050565b600081546117c581611509565b6117cf8186611332565b945060018216600081146117ea576001811461180057611833565b60ff198316865281151560200286019350611833565b6118098561153a565b60005b8381101561182b5781548189015260018201915060208101905061180c565b808801955050505b50505092915050565b6000604082019050818103600083015261185681856117b8565b90506118656020830184610ef3565b9392505050565b7f4e487b7100000000000000000000000000000000000000000000000000000000600052601160045260246000fd5b60006118a682610ee9565b91507fffffffffffffffffffffffffffffffffffffffffffffffffffffffffffffffff82036118d8576118d761186c565b5b600182019050919050565b7f496e76616c696420766f7465206f7074696f6e00000000000000000000000000600082015250565b6000611919601383611332565b9150611924826118e3565b602082019050919050565b600060208201905081810360008301526119488161190c565b9050919050565b600061195a82611194565b6119648185611332565b93506119748185602086016111b0565b61197d81610f97565b840191505092915050565b600060408201905081810360008301526119a2818561194f565b90506119b16020830184610ef3565b9392505050565b7f4361736520616c72656164792065786973747300000000000000000000000000600082015250565b60006119ee601383611332565b91506119f9826119b8565b602082019050919050565b60006020820190508181036000830152611a1d816119e1565b9050919050565b7f4361736520494420726571756972656400000000000000000000000000000000600082015250565b6000611a5a601083611332565b9150611a6582611a24565b602082019050919050565b60006020820190508181036000830152611a8981611a4d565b9050919050565b7f436f6d706c61696e742068617368207265717569726564000000000000000000600082015250565b6000611ac6601783611332565b9150611ad182611a90565b602082019050919050565b60006020820190508181036000830152611af581611ab9565b905091905056fea2646970667358221220dcaccfa600223228d9e31c16ad5e3c55e5cf39e6b482db394400550fc7b8b1e064736f6c63430008130033",
  "linkReferences": {},
  "deployedLinkReferences": {},
  "immutableReferences": {},
  "inputSourceName": "project/contracts/MetaCourt.sol",
  "buildInfoId": "solc-0_8_19-06eb85878c6d6634bc15c0dca501c08420be814a"
}