{"project/contracts/MetaCourt.sol":{"MetaCourt":{"abi":[{"inputs":[],"stateMutability":"nonpayable","type":"constructor"},{"anonymous":false,"inputs":[{"indexed":true,"internalType":"string","name":"caseId","type":"string"},{"indexed":false,"internalType":"string","name":"complaintHash","type":"string"},{"indexed":false,"internalType":"uint256","name":"timestamp","type":"uint256"}],"name":"CaseFiled","type":"event"},{"anonymous":false,"inputs":[{"indexed":true,"internalType":"string","name":"caseId","type":"string"},{"indexed":false,"internalType":"string","name":"decision","type":"string"},{"indexed":false,"internalType":"uint256","name":"timestamp","type":"uint256"}],"name":"DecisionReached","type":"event"},{"anonymous":false,"inputs":[{"indexed":true,"internalType":"string","name":"caseId","type":"string"},{"indexed":false,"internalType":"string","name":"vote","type":"string"},{"indexed":false,"internalType":"uint256","name":"timestamp","type":"uint256"}],"name":"VoteCast","type":"event"},{"inputs":[{"internalType":"string","name":"caseId","type":"string"},{"internalType":"string","name":"vote","type":"string"}],"name":"castVote","outputs":[],"stateMutability":"nonpayable","type":"function"},{"inputs":[{"internalType":"string","name":"caseId","type":"string"},{"internalType":"string","name":"complaintHash","type":"string"}],"name":"fileCase","outputs":[],"stateMutability":"nonpayable","type":"function"},{"inputs":[{"internalType":"string","name":"caseId","type":"string"}],"name":"finalizeDecision","outputs":[],"stateMutability":"nonpayable","type":"function"},{"inputs":[{"internalType":"string","name":"caseId","type":"string"}],"name":"getCase","outputs":[{"components":[{"internalType":"string","name":"caseId","type":"string"},{"internalType":"string","name":"complaintHash","type":"string"},{"internalType":"uint256","name":"validVotes","type":"uint256"},{"internalType":"uint256","name":"invalidVotes","type":"uint256"},{"internalType":"uint256","name":"needsEvidenceVotes","type":"uint256"},{"internalType":"bool","name":"isDecided","type":"bool"},{"internalType":"string","name":"decision","type":"string"},{"internalType":"uint256","name":"filedAt","type":"uint256"},{"internalType":"uint256","name":"decidedAt","type":"uint256"}],"internalType":"struct MetaCourt.Case","name":"","type":"tuple"}],"stateMutability":"view","type":"function"},{"inputs":[],"name":"getCaseCount","outputs":[{"internalType":"uint256","name":"","type":"uint256"}],"stateMutability":"view","type":"function"},{"inputs":[],"name":"owner","outputs":[{"internalType":"address","name":"","type":"address"}],"stateMutability":"view","type":"function"}],"evm":{"bytecode":{"linkReferences":{},"object":"608060405234801561001057600080fd5b50336000806101000a81548173ffffffffffffffffffffffffffffffffffffffff021916908373ffffffffffffffffffffffffffffffffffffffff160217905550611b32806100606000396000f3fe608060405234801561001057600080fd5b50600436106100625760003560e01c80636c08faf7146100675780638da5cb5b146100855780639d74df76146100a3578063c479fc91146100bf578063d4e06826146100db578063e9e63ac11461010b575b600080fd5b61006f610127565b60405161007c9190610f02565b60405180910390f35b61008d610134565b60405161009a9190610f5e565b60405180910390f35b6100bd60048036038101906100b891906110d3565b610158565b005b6100d960048036038101906100d4919061111c565b6104f9565b005b6100f560048036038101906100f091906110d3565b61087f565b6040516101029190611310565b60405180910390f35b6101256004803603810190610120919061111c565b610b28565b005b6000600380549050905090565b60008054906101000a900473ffffffffffffffffffffffffffffffffffffffff1681565b60008054906101000a900473ffffffffffffffffffffffffffffffffffffffff1673ffffffffffffffffffffffffffffffffffffffff163373ffffffffffffffffffffffffffffffffffffffff16146101e6576040517f08c379a00000000000000000000000000000000000000000000000000000000081526004016101dd9061138f565b60405180910390fd5b806002816040516101f791906113eb565b908152602001604051809103902060009054906101000a900460ff16610252576040517f08c379a00000000000000000000000000000000000000000000000000000000081526004016102499061144e565b60405180910390fd5b8160018160405161026391906113eb565b908152602001604051809103902060050160009054906101000a900460ff16156102c2576040517f08c379a00000000000000000000000000000000000000000000000000000000081526004016102b9906114ba565b60405180910390fd5b60006001846040516102d491906113eb565b9081526020016040518091039020905080600301548160020154118015610302575080600401548160020154115b15610353576040518060400160405280600581526020017f76616c696400000000000000000000000000000000000000000000000000000081525081600601908161034d91906116e6565b5061047b565b80600201548160030154118015610371575080600401548160030154115b156103c2576040518060400160405280600781526020017f696e76616c6964000000000000000000000000000000000000000000000000008152508160060190816103bc91906116e6565b5061047a565b806002015481600401541180156103e0575080600301548160040154115b15610431576040518060400160405280600e81526020017f6e656564735f65766964656e636500000000000000000000000000000000000081525081600601908161042b91906116e6565b50610479565b6040518060400160405280600481526020017f746965640000000000000000000000000000000000000000000000000000000081525081600601908161047791906116e6565b505b5b5b60018160050160006101000a81548160ff021916908315150217905550428160080181905550836040516104af91906113eb565b60405180910390207f031b8f7a8a56994242e4f96a404c7b996e5124bea984042306555727b8f8591582600601426040516104eb92919061183c565b60405180910390a250505050565b60008054906101000a900473ffffffffffffffffffffffffffffffffffffffff1673ffffffffffffffffffffffffffffffffffffffff163373ffffffffffffffffffffffffffffffffffffffff1614610587576040517f08c379a000000000000000000000000000000000000000000000000000000000815260040161057e9061138f565b60405180910390fd5b8160028160405161059891906113eb565b908152602001604051809103902060009054906101000a900460ff166105f3576040517f08c379a00000000000000000000000000000000000000000000000000000000081526004016105ea9061144e565b60405180910390fd5b8260018160405161060491906113eb565b908152602001604051809103902060050160009054906101000a900460ff1615610663576040517f08c379a000000000000000000000000000000000000000000000000000000000815260040161065a906114ba565b60405180910390fd5b6000838051906020012090506040518060400160405280600581526020017f76616c69640000000000000000000000000000000000000000000000000000008152508051906020012081036106ee576001856040516106c291906113eb565b908152602001604051809103902060020160008154809291906106e49061189b565b9190505550610829565b6040518060400160405280600781526020017f696e76616c69640000000000000000000000000000000000000000000000000081525080519060200120810361076d5760018560405161074191906113eb565b908152602001604051809103902060030160008154809291906107639061189b565b9190505550610828565b6040518060400160405280600e81526020017f6e656564735f65766964656e63650000000000000000000000000000000000008152508051906020012081036107ec576001856040516107c091906113eb565b908152602001604051809103902060040160008154809291906107e29061189b565b9190505550610827565b6040517f08c379a000000000000000000000000000000000000000000000000000000000815260040161081e9061192f565b60405180910390fd5b5b5b8460405161083791906113eb565b60405180910390207f300451be589b5091fe2ef895851d79bdefbb52597e6954e4449b652ab2f08cf48542604051610870929190611988565b60405180910390a25050505050565b610887610e9b565b8160028160405161089891906113eb565b908152602001604051809103902060009054906101000a900460ff166108f3576040517f08c379a00000000000000000000000000000000000000000000000000000000081526004016108ea9061144e565b60405180910390fd5b60018360405161090391906113eb565b90815260200160405180910390206040518061012001604052908160008201805461092d90611509565b80601f016020809104026020016040519081016040528092919081815260200182805461095990611509565b80156109a65780601f1061097b576101008083540402835291602001916109a6565b820191906000526020600020905b81548152906001019060200180831161098957829003601f168201915b505050505081526020016001820180546109bf90611509565b80601f01602080910402602001604051908101604052809291908181526020018280546109eb90611509565b8015610a385780601f10610a0d57610100808354040283529160200191610a38565b820191906000526020600020905b815481529060010190602001808311610a1b57829003601f168201915b505050505081526020016002820154815260200160038201548152602001600482015481526020016005820160009054906101000a900460ff16151515158152602001600682018054610a8a90611509565b80601f0160208091040260200160405190810160405280929190818152602001828054610ab690611509565b8015610b035780601f10610ad857610100808354040283529160200191610b03565b820191906000526020600020905b815481529060010190602001808311610ae657829003601f168201915b5050505050815260200160078201548152602001600882015481525050915050919050565b60008054906101000a900473ffffffffffffffffffffffffffffffffffffffff1673ffffffffffffffffffffffffffffffffffffffff163373ffffffffffffffffffffffffffffffffffffffff1614610bb6576040517f08c379a0000000000000000000000000000000000000000000000000000000008152600401610bad9061138f565b60405180910390fd5b600282604051610bc691906113eb565b908152602001604051809103902060009054906101000a900460ff1615610c22576040517f08c379a0000000000000000000000000000000000000000000000000000000008152600401610c1990611a04565b60405180910390fd5b6000825111610c66576040517f08c379a0000000000000000000000000000000000000000000000000000000008152600401610c5d90611a70565b60405180910390fd5b6000815111610caa576040517f08c379a0000000000000000000000000000000000000000000000000000000008152600401610ca190611adc565b60405180910390fd5b6040518061012001604052808381526020018281526020016000815260200160008152602001600081526020016000151581526020016040518060400160405280600781526020017f70656e64696e670000000000000000000000000000000000000000000000000081525081526020014281526020016000815250600183604051610d3691906113eb565b90815260200160405180910390206000820151816000019081610d5991906116e6565b506020820151816001019081610d6f91906116e6565b5060408201518160020155606082015181600301556080820151816004015560a08201518160050160006101000a81548160ff02191690831515021790555060c0820151816006019081610dc391906116e6565b5060e0820151816007015561010082015181600801559050506001600283604051610dee91906113eb565b908152602001604051809103902060006101000a81548160ff021916908315150217905550600382908060018154018082558091505060019003906000526020600020016000909190919091509081610e4791906116e6565b5081604051610e5691906113eb565b60405180910390207f4936f81e3ba02847f75dcad53c865bb75c8da9518a9ed9fffc48bfca794928e78242604051610e8f929190611988565b60405180910390a25050565b60405180610120016040528060608152602001606081526020016000815260200160008152602001600081526020016000151581526020016060815260200160008152602001600081525090565b6000819050919050565b610efc81610ee9565b82525050565b6000602082019050610f176000830184610ef3565b92915050565b600073ffffffffffffffffffffffffffffffffffffffff82169050919050565b6000610f4882610f1d565b9050919050565b610f5881610f3d565b82525050565b6000602082019050610f736000830184610f4f565b92915050565b6000604051905090565b600080fd5b600080fd5b600080fd5b600080fd5b6000601f19601f8301169050919050565b7f4e487b7100000000000000000000000000000000000000000000000000000000600052604160045260246000fd5b610fe082610f97565b810181811067ffffffffffffffff82111715610fff57610ffe610fa8565b5b80604052505050565b6000611012610f79565b905061101e8282610fd7565b919050565b600067ffffffffffffffff82111561103e5761103d610fa8565b5b61104782610f97565b9050602081019050919050565b82818337600083830152505050565b600061107661107184611023565b611008565b90508281526020810184848401111561109257611091610f92565b5b61109d848285611054565b509392505050565b600082601f8301126110ba576110b9610f8d565b5b81356110ca848260208601611063565b91505092915050565b6000602082840312156110e9576110e8610f83565b5b600082013567ffffffffffffffff81111561110757611106610f88565b5b611113848285016110a5565b91505092915050565b6000806040838503121561113357611132610f83565b5b600083013567ffffffffffffffff81111561115157611150610f88565b5b61115d858286016110a5565b925050602083013567ffffffffffffffff81111561117e5761117d610f88565b5b61118a858286016110a5565b9150509250929050565b600081519050919050565b600082825260208201905092915050565b60005b838110156111ce5780820151818401526020810190506111b3565b60008484015250505050565b60006111e582611194565b6111ef818561119f565b93506111ff8185602086016111b0565b61120881610f97565b840191505092915050565b61121c81610ee9565b82525050565b60008115159050919050565b61123781611222565b82525050565b600061012083016000830151848203600086015261125b82826111da565b9150506020830151848203602086015261127582826111da565b915050604083015161128a6040860182611213565b50606083015161129d6060860182611213565b5060808301516112b06080860182611213565b5060a08301516112c360a086018261122e565b5060c083015184820360c08601526112db82826111da565b91505060e08301516112f060e0860182611213565b50610100830151611305610100860182611213565b508091505092915050565b6000602082019050818103600083015261132a818461123d565b905092915050565b600082825260208201905092915050565b7f4e6f7420617574686f72697a6564000000000000000000000000000000000000600082015250565b6000611379600e83611332565b915061138482611343565b602082019050919050565b600060208201905081810360008301526113a88161136c565b9050919050565b600081905092915050565b60006113c582611194565b6113cf81856113af565b93506113df8185602086016111b0565b80840191505092915050565b60006113f782846113ba565b915081905092915050565b7f4361736520646f6573206e6f7420657869737400000000000000000000000000600082015250565b6000611438601383611332565b915061144382611402565b602082019050919050565b600060208201905081810360008301526114678161142b565b9050919050565b7f4361736520616c72656164792064656369646564000000000000000000000000600082015250565b60006114a4601483611332565b91506114af8261146e565b602082019050919050565b600060208201905081810360008301526114d381611497565b9050919050565b7f4e487b7100000000000000000000000000000000000000000000000000000000600052602260045260246000fd5b6000600282049050600182168061152157607f821691505b602082108103611534576115336114da565b5b50919050565b60008190508160005260206000209050919050565b60006020601f8301049050919050565b600082821b905092915050565b60006008830261159c7fffffffffffffffffffffffffffffffffffffffffffffffffffffffffffffffff8261155f565b6115a6868361155f565b95508019841693508086168417925050509392505050565b6000819050919050565b60006115e36115de6115d984610ee9565b6115be565b610ee9565b9050919050565b6000819050919050565b6115fd836115c8565b611611611609826115ea565b84845461156c565b825550505050565b600090565b611626611619565b6116318184846115f4565b505050565b5b818110156116555761164a60008261161e565b600181019050611637565b5050565b601f82111561169a5761166b8161153a565b6116748461154f565b81016020851015611683578190505b61169761168f8561154f565b830182611636565b50505b505050565b600082821c905092915050565b60006116bd6000198460080261169f565b1980831691505092915050565b60006116d683836116ac565b9150826002028217905092915050565b6116ef82611194565b67ffffffffffffffff81111561170857611707610fa8565b5b6117128254611509565b61171d828285611659565b600060209050601f831160018114611750576000841561173e578287015190505b61174885826116ca565b8655506117b0565b601f19841661175e8661153a565b60005b8281101561178657848901518255600182019150602085019450602081019050611761565b868310156117a3578489015161179f601f8916826116ac565b8355505b6001600288020188555050505b505050505050565b600081546117c581611509565b6117cf8186611332565b945060018216600081146117ea576001811461180057611833565b60ff198316865281151560200286019350611833565b6118098561153a565b60005b8381101561182b5781548189015260018201915060208101905061180c565b808801955050505b50505092915050565b6000604082019050818103600083015261185681856117b8565b90506118656020830184610ef3565b9392505050565b7f4e487b7100000000000000000000000000000000000000000000000000000000600052601160045260246000fd5b60006118a682610ee9565b91507fffffffffffffffffffffffffffffffffffffffffffffffffffffffffffffffff82036118d8576118d761186c565b5b600182019050919050565b7f496e76616c696420766f7465206f7074696f6e00000000000000000000000000600082015250565b6000611919601383611332565b9150611924826118e3565b602082019050919050565b600060208201905081810360008301526119488161190c565b9050919050565b600061195a82611194565b6119648185611332565b93506119748185602086016111b0565b61197d81610f97565b840191505092915050565b600060408201905081810360008301526119a2818561194f565b90506119b16020830184610ef3565b9392505050565b7f4361736520616c72656164792065786973747300000000000000000000000000600082015250565b60006119ee601383611332565b91506119f9826119b8565b602082019050919050565b60006020820190508181036000830152611a1d816119e1565b9050919050565b7f4361736520494420726571756972656400000000000000000000000000000000600082015250565b6000611a5a601083611332565b9150611a6582611a24565b602082019050919050565b60006020820190508181036000830152611a8981611a4d565b9050919050565b7f436f6d706c61696e742068617368207265717569726564000000000000000000600082015250565b6000611ac6601783611332565b9150611ad182611a90565b602082019050919050565b60006020820190508181036000830152611af581611ab9565b905091905056fea2646970667358221220dcaccfa600223228d9e31c16ad5e3c55e5cf39e6b482db394400550fc7b8b1e064736f6c63430008130033","opcodes":"PUSH1 0x80 PUSH1 0x40 MSTORE CALLVALUE DUP1 ISZERO PUSH2 0x10 JUMPI PUSH1 0x0 DUP1 REVERT JUMPDEST POP CALLER PUSH1 0x0 DUP1 PUSH2 0x100 EXP DUP2 SLOAD DUP2 PUSH20 0xFFFFFFFFFFFFFFFFFFFFFFFFFFFFFFFFFFFFFFFF MUL NOT AND SWAP1 DUP4 PUSH20 0xFFFFFFFFFFFFFFFFFFFFFFFFFFFFFFFFFFFFFFFF AND MUL OR SWAP1 SSTORE POP PUSH2 0x1B32 DUP1 PUSH2 0x60 PUSH1 0x0 CODECOPY PUSH1 0x0 RETURN INVALID PUSH1 0x80 PUSH1 0x40 MSTORE CALLVALUE DUP1 ISZERO PUSH2 0x10 JUMPI PUSH1 0x0 DUP1 REVERT JUMPDEST POP PUSH1 0x4 CALLDATASIZE LT PUSH2 0x62 JUMPI PUSH1 0x0 CALLDATALOAD PUSH1 0xE0 SHR DUP1 PUSH4 0x6C08FAF7 EQ PUSH2 0x67 JUMPI DUP1 PUSH4 0x8DA5CB5B EQ PUSH2 0x85 JUMPI DUP1 PUSH4 0x9D74DF76 EQ PUSH2 0xA3 JUMPI DUP1 PUSH4 0xC479FC91 EQ PUSH2 0xBF JUMPI DUP1 PUSH4 0xD4E06826 EQ PUSH2 0xDB JUMPI DUP1 PUSH4 0xE9E63AC1 EQ PUSH2 0x10B JUMPI JUMPDEST PUSH1 0x0 DUP1 REVERT JUMPDEST PUSH2 0x6F PUSH2 0x127 JUMP JUMPDEST PUSH1 0x40 MLOAD PUSH2 0x7C SWAP2 SWAP1 PUSH2 0xF02 JUMP JUMPDEST PUSH1 0x40 MLOAD DUP1 SWAP2 SUB SWAP1 RETURN JUMPDEST PUSH2 0x8D PUSH2 0x134 JUMP JUMPDEST PUSH1 0x40 MLOAD PUSH2 0x9A SWAP2 SWAP1 PUSH2 0xF5E JUMP JUMPDEST PUSH1 0x40 MLOAD DUP1 SWAP2 SUB SWAP1 RETURN JUMPDEST PUSH2 0xBD PUSH1 0x4 DUP1 CALLDATASIZE SUB DUP2 ADD SWAP1 PUSH2 0xB8 SWAP2 SWAP1 PUSH2 0x10D3 JUMP JUMPDEST PUSH2 0x158 JUMP JUMPDEST STOP JUMPDEST PUSH2 0xD9 PUSH1 0x4 DUP1 CALLDATASIZE SUB DUP2 ADD SWAP1 PUSH2 0xD4 SWAP2 SWAP1 PUSH2 0x111C JUMP JUMPDEST PUSH2 0x4F9 JUMP JUMPDEST STOP JUMPDEST PUSH2 0xF5 PUSH1 0x4 DUP1 CALLDATASIZE SUB DUP2 ADD SWAP1 PUSH2 0xF0 SWAP2 SWAP1 PUSH2 0x10D3 JUMP JUMPDEST PUSH2 0x87F JUMP JUMPDEST PUSH1 0x40 MLOAD PUSH2 0x102 SWAP2 SWAP1 PUSH2 0x1310 JUMP JUMPDEST PUSH1 0x40 MLOAD DUP1 SWAP2 SUB SWAP1 RETURN JUMPDEST PUSH2 0x125 PUSH1 0x4 DUP1 CALLDATASIZE SUB DUP2 ADD SWAP1 PUSH2 0x120 SWAP2 SWAP1 PUSH2 0x111C JUMP JUMPDEST PUSH2 0xB28 JUMP JUMPDEST STOP JUMPDEST PUSH1 0x0 PUSH1 0x3 DUP1 SLOAD SWAP1 POP SWAP1 POP SWAP1 JUMP JUMPDEST PUSH1 0x0 DUP1 SLOAD SWAP1 PUSH2 0x100 EXP SWAP1 DIV PUSH20 0xFFFFFFFFFFFFFFFFFFFFFFFFFFFFFFFFFFFFFFFF AND DUP2 JUMP JUMPDEST PUSH1 0x0 DUP1 SLOAD SWAP1 PUSH2 0x100 EXP SWAP1 DIV PUSH20 0xFFFFFFFFFFFFFFFFFFFFFFFFFFFFFFFFFFFFFFFF AND PUSH20 0xFFFFFFFFFFFFFFFFFFFFFFFFFFFFFFFFFFFFFFFF AND CALLER PUSH20 0xFFFFFFFFFFFFFFFFFFFFFFFFFFFFFFFFFFFFFFFF AND EQ PUSH2 0x1E6 JUMPI PUSH1 0x40 MLOAD PUSH32 0x8C379A000000000000000000000000000000000000000000000000000000000 DUP2 MSTORE PUSH1 0x4 ADD PUSH2 0x1DD SWAP1 PUSH2 0x138F JUMP JUMPDEST PUSH1 0x40 MLOAD DUP1 SWAP2 SUB SWAP1 REVERT JUMPDEST DUP1 PUSH1 0x2 DUP2 PUSH1 0x40 MLOAD PUSH2 0x1F7 SWAP2 SWAP1 PUSH2 0x13EB JUMP JUMPDEST SWAP1 DUP2 MSTORE PUSH1 0x20 ADD PUSH1 0x40 MLOAD DUP1 SWAP2 SUB SWAP1 KECCAK256 PUSH1 0x0 SWAP1 SLOAD SWAP1 PUSH2 0x100 EXP SWAP1 DIV PUSH1 0xFF AND PUSH2 0x252 JUMPI PUSH1 0x40 MLOAD PUSH32 0x8C379A000000000000000000000000000000000000000000000000000000000 DUP2 MSTORE PUSH1 0x4 ADD PUSH2 0x249 SWAP1 PUSH2 0x144E JUMP JUMPDEST PUSH1 0x40 MLOAD DUP1 SWAP2 SUB SWAP1 REVERT JUMPDEST DUP2 PUSH1 0x1 DUP2 PUSH1 0x40 MLOAD PUSH2 0x263 SWAP2 SWAP1 PUSH2 0x13EB JUMP JUMPDEST SWAP1 DUP2 MSTORE PUSH1 0x20 ADD PUSH1 0x40 MLOAD DUP1 SWAP2 SUB SWAP1 KECCAK256 PUSH1 0x5 ADD PUSH1 0x0 SWAP1 SLOAD SWAP1 PUSH2 0x100 EXP SWAP1 DIV PUSH1 0xFF AND ISZERO PUSH2 0x2C2 JUMPI PUSH1 0x40 MLOAD PUSH32 0x8C379A000000000000000000000000000000000000000000000000000000000 DUP2 MSTORE PUSH1 0x4 ADD PUSH2 0x2B9 SWAP1 PUSH2 0x14BA JUMP JUMPDEST PUSH1 0x40 MLOAD DUP1 SWAP2 SUB SWAP1 REVERT JUMPDEST PUSH1 0x0 PUSH1 0x1 DUP5 PUSH1 0x40 MLOAD PUSH2 0x2D4 SWAP2 SWAP1 PUSH2 0x13EB JUMP JUMPDEST SWAP1 DUP2 MSTORE PUSH1 0x20 ADD PUSH1 0x40 MLOAD DUP1 SWAP2 SUB SWAP1 KECCAK256 SWAP1 POP DUP1 PUSH1 0x3 ADD SLOAD DUP2 PUSH1 0x2 ADD SLOAD GT DUP1 ISZERO PUSH2 0x302 JUMPI POP DUP1 PUSH1 0x4 ADD SLOAD DUP2 PUSH1 0x2 ADD SLOAD GT JUMPDEST ISZERO PUSH2 0x353 JUMPI PUSH1 0x40 MLOAD DUP1 PUSH1 0x40 ADD PUSH1 0x40 MSTORE DUP1 PUSH1 0x5 DUP2 MSTORE PUSH1 0x20 ADD PUSH32 0x76616C6964000000000000000000000000000000000000000000000000000000 DUP2 MSTORE POP DUP2 PUSH1 0x6 ADD SWAP1 DUP2 PUSH2 0x34D SWAP2 SWAP1 PUSH2 0x16E6 JUMP JUMPDEST POP PUSH2 0x47B JUMP JUMPDEST DUP1 PUSH1 0x2 ADD SLOAD DUP2 PUSH1 0x3 ADD SLOAD GT DUP1 ISZERO PUSH2 0x371 JUMPI POP DUP1 PUSH1 0x4 ADD SLOAD DUP2 PUSH1 0x3 ADD SLOAD GT JUMPDEST ISZERO PUSH2 0x3C2 JUMPI PUSH1 0x40 MLOAD DUP1 PUSH1 0x40 ADD PUSH1 0x40 MSTORE DUP1 PUSH1 0x7 DUP2 MSTORE PUSH1 0x20 ADD PUSH32 0x696E76616C696400000000000000000000000000000000000000000000000000 DUP2 MSTORE POP DUP2 PUSH1 0x6 ADD SWAP1 DUP2 PUSH2 0x3BC SWAP2 SWAP1 PUSH2 0x16E6 JUMP JUMPDEST POP PUSH2 0x47A JUMP JUMPDEST DUP1 PUSH1 0x2 ADD SLOAD DUP2 PUSH1 0x4 ADD SLOAD GT DUP1 ISZERO PUSH2 0x3E0 JUMPI POP DUP1 PUSH1 0x3 ADD SLOAD DUP2 PUSH1 0x4 ADD SLOAD GT JUMPDEST ISZERO PUSH2 0x431 JUMPI PUSH1 0x40 MLOAD DUP1 PUSH1 0x40 ADD PUSH1 0x40 MSTORE DUP1 PUSH1 0xE DUP2 MSTORE PUSH1 0x20 ADD PUSH32 0x6E656564735F65766964656E6365000000000000000000000000000000000000 DUP2 MSTORE POP DUP2 PUSH1 0x6 ADD SWAP1 DUP2 PUSH2 0x42B SWAP2 SWAP1 PUSH2 0x16E6 JUMP JUMPDEST POP PUSH2 0x479 JUMP JUMPDEST PUSH1 0x40 MLOAD DUP1 PUSH1 0x40 ADD PUSH1 0x40 MSTORE DUP1 PUSH1 0x4 DUP2 MSTORE PUSH1 0x20 ADD PUSH32 0x7469656400000000000000000000000000000000000000000000000000000000 DUP2 MSTORE POP DUP2 PUSH1 0x6 ADD SWAP1 DUP2 PUSH2 0x477 SWAP2 SWAP1 PUSH2 0x16E6 JUMP JUMPDEST POP JUMPDEST JUMPDEST JUMPDEST PUSH1 0x1 DUP2 PUSH1 0x5 ADD PUSH1 0x0 PUSH2 0x100 EXP DUP2 SLOAD DUP2 PUSH1 0xFF MUL NOT AND SWAP1 DUP4 ISZERO ISZERO MUL OR SWAP1 SSTORE POP TIMESTAMP DUP2 PUSH1 0x8 ADD DUP2 SWAP1 SSTORE POP DUP4 PUSH1 0x40 MLOAD PUSH2 0x4AF SWAP2 SWAP1 PUSH2 0x13EB JUMP JUMPDEST PUSH1 0x40 MLOAD DUP1 SWAP2 SUB SWAP1 KECCAK256 PUSH32 0x31B8F7A8A56994242E4F96A404C7B996E5124BEA984042306555727B8F85915 DUP3 PUSH1 0x6 ADD TIMESTAMP PUSH1 0x40 MLOAD PUSH2 0x4EB SWAP3 SWAP2 SWAP1 PUSH2 0x183C JUMP JUMPDEST PUSH1 0x40 MLOAD DUP1 SWAP2 SUB SWAP1 LOG2 POP POP POP POP JUMP JUMPDEST PUSH1 0x0 DUP1 SLOAD SWAP1 PUSH2 0x100 EXP SWAP1 DIV PUSH20 0xFFFFFFFFFFFFFFFFFFFFFFFFFFFFFFFFFFFFFFFF AND PUSH20 0xFFFFFFFFFFFFFFFFFFFFFFFFFFFFFFFFFFFFFFFF AND CALLER PUSH20 0xFFFFFFFFFFFFFFFFFFFFFFFFFFFFFFFFFFFFFFFF AND EQ PUSH2 0x587 JUMPI PUSH1 0x40 MLOAD PUSH32 0x8C379A000000000000000000000000000000000000000000000000000000000 DUP2 MSTORE PUSH1 0x4 ADD PUSH2 0x57E SWAP1 PUSH2 0x138F JUMP JUMPDEST PUSH1 0x40 MLOAD DUP1 SWAP2 SUB SWAP1 REVERT JUMPDEST DUP2 PUSH1 0x2 DUP2 PUSH1 0x40 MLOAD PUSH2 0x598 SWAP2 SWAP1 PUSH2 0x13EB JUMP JUMPDEST SWAP1 DUP2 MSTORE PUSH1 0x20 ADD PUSH1 0x40 MLOAD DUP1 SWAP2 SUB SWAP1 KECCAK256 PUSH1 0x0 SWAP1 SLOAD SWAP1 PUSH2 0x100 EXP SWAP1 DIV PUSH1 0xFF AND PUSH2 0x5F3 JUMPI PUSH1 0x40 MLOAD PUSH32 0x8C379A000000000000000000000000000000000000000000000000000000000 DUP2 MSTORE PUSH1 0x4 ADD PUSH2 0x5EA SWAP1 PUSH2 0x144E JUMP JUMPDEST PUSH1 0x40 MLOAD DUP1 SWAP2 SUB SWAP1 REVERT JUMPDEST DUP3 PUSH1 0x1 DUP2 PUSH1 0x40 MLOAD PUSH2 0x604 SWAP2 SWAP1 PUSH2 0x13EB JUMP JUMPDEST SWAP1 DUP2 MSTORE PUSH1 0x20 ADD PUSH1 0x40 MLOAD DUP1 SWAP2 SUB SWAP1 KECCAK256 PUSH1 0x5 ADD PUSH1 0x0 SWAP1 SLOAD SWAP1 PUSH2 0x100 EXP SWAP1 DIV PUSH1 0xFF AND ISZERO PUSH2 0x663 JUMPI PUSH1 0x40 MLOAD PUSH32 0x8C379A000000000000000000000000000000000000000000000000000000000 DUP2 MSTORE PUSH1 0x4 ADD PUSH2 0x65A SWAP1 PUSH2 0x14BA JUMP JUMPDEST PUSH1 0x40 MLOAD DUP1 SWAP2 SUB SWAP1 REVERT JUMPDEST PUSH1 0x0 DUP4 DUP1 MLOAD SWAP1 PUSH1 0x20 ADD KECCAK256 SWAP1 POP PUSH1 0x40 MLOAD DUP1 PUSH1 0x40 ADD PUSH1 0x40 MSTORE DUP1 PUSH1 0x5 DUP2 MSTORE PUSH1 0x20 ADD PUSH32 0x76616C6964000000000000000000000000000000000000000000000000000000 DUP2 MSTORE POP DUP1 MLOAD SWAP1 PUSH1 0x20 ADD KECCAK256 DUP2 SUB PUSH2 0x6EE JUMPI PUSH1 0x1 DUP6 PUSH1 0x40 MLOAD PUSH2 0x6C2 SWAP2 SWAP1 PUSH2 0x13EB JUMP JUMPDEST SWAP1 DUP2 MSTORE PUSH1 0x20 ADD PUSH1 0x40 MLOAD DUP1 SWAP2 SUB SWAP1 KECCAK256 PUSH1 0x2 ADD PUSH1 0x0 DUP2 SLOAD DUP1 SWAP3 SWAP2 SWAP1 PUSH2 0x6E4 SWAP1 PUSH2 0x189B JUMP JUMPDEST SWAP2 SWAP1 POP SSTORE POP PUSH2 0x829 JUMP JUMPDEST PUSH1 0x40 MLOAD DUP1 PUSH1 0x40 ADD PUSH1 0x40 MSTORE DUP1 PUSH1 0x7 DUP2 MSTORE PUSH1 0x20 ADD PUSH32 0x696E76616C696400000000000000000000000000000000000000000000000000 DUP2 MSTORE POP DUP1 MLOAD SWAP1 PUSH1 0x20 ADD KECCAK256 DUP2 SUB PUSH2 0x76D JUMPI PUSH1 0x1 DUP6 PUSH1 0x40 MLOAD PUSH2 0x741 SWAP2 SWAP1 PUSH2 0x13EB JUMP JUMPDEST SWAP1 DUP2 MSTORE PUSH1 0x20 ADD PUSH1 0x40 MLOAD DUP1 SWAP2 SUB SWAP1 KECCAK256 PUSH1 0x3 ADD PUSH1 0x0 DUP2 SLOAD DUP1 SWAP3 SWAP2 SWAP1 PUSH2 0x763 SWAP1 PUSH2 0x189B JUMP JUMPDEST SWAP2 SWAP1 POP SSTORE POP PUSH2 0x828 JUMP JUMPDEST PUSH1 0x40 MLOAD DUP1 PUSH1 0x40 ADD PUSH1 0x40 MSTORE DUP1 PUSH1 0xE DUP2 MSTORE PUSH1 0x20 ADD PUSH32 0x6E656564735F65766964656E6365000000000000000000000000000000000000 DUP2 MSTORE POP DUP1 MLOAD SWAP1 PUSH1 0x20 ADD KECCAK256 DUP2 SUB PUSH2 0x7EC JUMPI PUSH1 0x1 DUP6 PUSH1 0x40 MLOAD PUSH2 0x7C0 SWAP2 SWAP1 PUSH2 0x13EB JUMP JUMPDEST SWAP1 DUP2 MSTORE PUSH1 0x20 ADD PUSH1 0x40 MLOAD DUP1 SWAP2 SUB SWAP1 KECCAK256 PUSH1 0x4 ADD PUSH1 0x0 DUP2 SLOAD DUP1 SWAP3 SWAP2 SWAP1 PUSH2 0x7E2 SWAP1 PUSH2 0x189B JUMP JUMPDEST SWAP2 SWAP1 POP SSTORE POP PUSH2 0x827 JUMP JUMPDEST PUSH1 0x40 MLOAD PUSH32 0x8C379A000000000000000000000000000000000000000000000000000000000 DUP2 MSTORE PUSH1 0x4 ADD PUSH2 0x81E SWAP1 PUSH2 0x192F JUMP JUMPDEST PUSH1 0x40 MLOAD DUP1 SWAP2 SUB SWAP1 REVERT JUMPDEST JUMPDEST JUMPDEST DUP5 PUSH1 0x40 MLOAD PUSH2 0x837 SWAP2 SWAP1 PUSH2 0x13EB JUMP JUMPDEST PUSH1 0x40 MLOAD DUP1 SWAP2 SUB SWAP1 KECCAK256 PUSH32 0x300451BE589B5091FE2EF895851D79BDEFBB52597E6954E4449B652AB2F08CF4 DUP6 TIMESTAMP PUSH1 0x40 MLOAD PUSH2 0x870 SWAP3 SWAP2 SWAP1 PUSH2 0x1988 JUMP JUMPDEST PUSH1 0x40 MLOAD DUP1 SWAP2 SUB SWAP1 LOG2 POP POP POP POP POP JUMP JUMPDEST PUSH2 0x887 PUSH2 0xE9B JUMP JUMPDEST DUP2 PUSH1 0x2 DUP2 PUSH1 0x40 MLOAD PUSH2 0x898 SWAP2 SWAP1 PUSH2 0x13EB JUMP JUMPDEST SWAP1 DUP2 MSTORE PUSH1 0x20 ADD PUSH1 0x40 MLOAD DUP1 SWAP2 SUB SWAP1 KECCAK256 PUSH1 0x0 SWAP1 SLOAD SWAP1 PUSH2 0x100 EXP SWAP1 DIV PUSH1 0xFF AND PUSH2 0x8F3 JUMPI PUSH1 0x40 MLOAD PUSH32 0x8C379A000000000000000000000000000000000000000000000000000000000 DUP2 MSTORE PUSH1 0x4 ADD PUSH2 0x8EA SWAP1 PUSH2 0x144E JUMP JUMPDEST PUSH1 0x40 MLOAD DUP1 SWAP2 SUB SWAP1 REVERT JUMPDEST PUSH1 0x1 DUP4 PUSH1 0x40 MLOAD PUSH2 0x903 SWAP2 SWAP1 PUSH2 0x13EB JUMP JUMPDEST SWAP1 DUP2 MSTORE PUSH1 0x20 ADD PUSH1 0x40 MLOAD DUP1 SWAP2 SUB SWAP1 KECCAK256 PUSH1 0x40 MLOAD DUP1 PUSH2 0x120 ADD PUSH1 0x40 MSTORE SWAP1 DUP2 PUSH1 0x0 DUP3 ADD DUP1 SLOAD PUSH2 0x92D SWAP1 PUSH2 0x1509 JUMP JUMPDEST DUP1 PUSH1 0x1F ADD PUSH1 0x20 DUP1 SWAP2 DIV MUL PUSH1 0x20 ADD PUSH1 0x40 MLOAD SWAP1 DUP2 ADD PUSH1 0x40 MSTORE DUP1 SWAP3 SWAP2 SWAP1 DUP2 DUP2 MSTORE PUSH1 0x20 ADD DUP3 DUP1 SLOAD PUSH2 0x959 SWAP1 PUSH2 0x1509 JUMP JUMPDEST DUP1 ISZERO PUSH2 0x9A6 JUMPI DUP1 PUSH1 0x1F LT PUSH2 0x97B JUMPI PUSH2 0x100 DUP1 DUP4 SLOAD DIV MUL DUP4 MSTORE SWAP2 PUSH1 0x20 ADD SWAP2 PUSH2 0x9A6 JUMP JUMPDEST DUP3 ADD SWAP2 SWAP1 PUSH1 0x0 MSTORE PUSH1 0x20 PUSH1 0x0 KECCAK256 SWAP1 JUMPDEST DUP2 SLOAD DUP2 MSTORE SWAP1 PUSH1 0x1 ADD SWAP1 PUSH1 0x20 ADD DUP1 DUP4 GT PUSH2 0x989 JUMPI DUP3 SWAP1 SUB PUSH1 0x1F AND DUP3 ADD SWAP2 JUMPDEST POP POP POP POP POP DUP2 MSTORE PUSH1 0x20 ADD PUSH1 0x1 DUP3 ADD DUP1 SLOAD PUSH2 0x9BF SWAP1 PUSH2 0x1509 JUMP JUMPDEST DUP1 PUSH1 0x1F ADD PUSH1 0x20 DUP1 SWAP2 DIV MUL PUSH1 0x20 ADD PUSH1 0x40 MLOAD SWAP1 DUP2 ADD PUSH1 0x40 MSTORE DUP1 SWAP3 SWAP2 SWAP1 DUP2 DUP2 MSTORE PUSH1 0x20 ADD DUP3 DUP1 SLOAD PUSH2 0x9EB SWAP1 PUSH2 0x1509 JUMP JUMPDEST DUP1 ISZERO PUSH2 0xA38 JUMPI DUP1 PUSH1 0x1F LT PUSH2 0xA0D JUMPI PUSH2 0x100 DUP1 DUP4 SLOAD DIV MUL DUP4 MSTORE SWAP2 PUSH1 0x20 ADD SWAP2 PUSH2 0xA38 JUMP JUMPDEST DUP3 ADD SWAP2 SWAP1 PUSH1 0x0 MSTORE PUSH1 0x20 PUSH1 0x0 KECCAK256 SWAP1 JUMPDEST DUP2 SLOAD DUP2 MSTORE SWAP1 PUSH1 0x1 ADD SWAP1 PUSH1 0x20 ADD DUP1 DUP4 GT PUSH2 0xA1B JUMPI DUP3 SWAP1 SUB PUSH1 0x1F AND DUP3 ADD SWAP2 JUMPDEST POP POP POP POP POP DUP2 MSTORE PUSH1 0x20 ADD PUSH1 0x2 DUP3 ADD SLOAD DUP2 MSTORE PUSH1 0x20 ADD PUSH1 0x3 DUP3 ADD SLOAD DUP2 MSTORE PUSH1 0x20 ADD PUSH1 0x4 DUP3 ADD SLOAD DUP2 MSTORE PUSH1 0x20 ADD PUSH1 0x5 DUP3 ADD PUSH1 0x0 SWAP1 SLOAD SWAP1 PUSH2 0x100 EXP SWAP1 DIV PUSH1 0xFF AND ISZERO ISZERO ISZERO ISZERO DUP2 MSTORE PUSH1 0x20 ADD PUSH1 0x6 DUP3 ADD DUP1 SLOAD PUSH2 0xA8A SWAP1 PUSH2 0x1509 JUMP JUMPDEST DUP1 PUSH1 0x1F ADD PUSH1 0x20 DUP1 SWAP2 DIV MUL PUSH1 0x20 ADD PUSH1 0x40 MLOAD SWAP1 DUP2 ADD PUSH1 0x40 MSTORE DUP1 SWAP3 SWAP2 SWAP1 DUP2 DUP2 MSTORE PUSH1 0x20 ADD DUP3 DUP1 SLOAD PUSH2 0xAB6 SWAP1 PUSH2 0x1509 JUMP JUMPDEST DUP1 ISZERO PUSH2 0xB03 JUMPI DUP1 PUSH1 0x1F LT PUSH2 0xAD8 JUMPI PUSH2 0x100 DUP1 DUP4 SLOAD DIV MUL DUP4 MSTORE SWAP2 PUSH1 0x20 ADD SWAP2 PUSH2 0xB03 JUMP JUMPDEST DUP3 ADD SWAP2 SWAP1 PUSH1 0x0 MSTORE PUSH1 0x20 PUSH1 0x0 KECCAK256 SWAP1 JUMPDEST DUP2 SLOAD DUP2 MSTORE SWAP1 PUSH1 0x1 ADD SWAP1 PUSH1 0x20 ADD DUP1 DUP4 GT PUSH2 0xAE6 JUMPI DUP3 SWAP1 SUB PUSH1 0x1F AND DUP3 ADD SWAP2 JUMPDEST POP POP POP POP POP DUP2 MSTORE PUSH1 0x20 ADD PUSH1 0x7 DUP3 ADD SLOAD DUP2 MSTORE PUSH1 0x20 ADD PUSH1 0x8 DUP3 ADD SLOAD DUP2 MSTORE POP POP SWAP2 POP POP SWAP2 SWAP1 POP JUMP JUMPDEST PUSH1 0x0 DUP1 SLOAD SWAP1 PUSH2 0x100 EXP SWAP1 DIV PUSH20 0xFFFFFFFFFFFFFFFFFFFFFFFFFFFFFFFFFFFFFFFF AND PUSH20 0xFFFFFFFFFFFFFFFFFFFFFFFFFFFFFFFFFFFFFFFF AND CALLER PUSH20 0xFFFFFFFFFFFFFFFFFFFFFFFFFFFFFFFFFFFFFFFF AND EQ PUSH2 0xBB6 JUMPI PUSH1 0x40 MLOAD PUSH32 0x8C379A000000000000000000000000000000000000000000000000000000000 DUP2 MSTORE PUSH1 0x4 ADD PUSH2 0xBAD SWAP1 PUSH2 0x138F JUMP JUMPDEST PUSH1 0x40 MLOAD DUP1 SWAP2 SUB SWAP1 REVERT JUMPDEST PUSH1 0x2 DUP3 PUSH1 0x40 MLOAD PUSH2 0xBC6 SWAP2 SWAP1 PUSH2 0x13EB JUMP JUMPDEST SWAP1 DUP2 MSTORE PUSH1 0x20 ADD PUSH1 0x40 MLOAD DUP1 SWAP2 SUB SWAP1 KECCAK256 PUSH1 0x0 SWAP1 SLOAD SWAP1 PUSH2 0x100 EXP SWAP1 DIV PUSH1 0xFF AND ISZERO PUSH2 0xC22 JUMPI PUSH1 0x40 MLOAD PUSH32 0x8C379A000000000000000000000000000000000000000000000000000000000 DUP2 MSTORE PUSH1 0x4 ADD PUSH2 0xC19 SWAP1 PUSH2 0x1A04 JUMP JUMPDEST PUSH1 0x40 MLOAD DUP1 SWAP2 SUB SWAP1 REVERT JUMPDEST PUSH1 0x0 DUP3 MLOAD GT PUSH2 0xC66 JUMPI PUSH1 0x40 MLOAD PUSH32 0x8C379A000000000000000000000000000000000000000000000000000000000 DUP2 MSTORE PUSH1 0x4 ADD PUSH2 0xC5D SWAP1 PUSH2 0x1A70 JUMP JUMPDEST PUSH1 0x40 MLOAD DUP1 SWAP2 SUB SWAP1 REVERT JUMPDEST PUSH1 0x0 DUP2 MLOAD GT PUSH2 0xCAA JUMPI PUSH1 0x40 MLOAD PUSH32 0x8C379A000000000000000000000000000000000000000000000000000000000 DUP2 MSTORE PUSH1 0x4 ADD PUSH2 0xCA1 SWAP1 PUSH2 0x1ADC JUMP JUMPDEST PUSH1 0x40 MLOAD DUP1 SWAP2 SUB SWAP1 REVERT JUMPDEST PUSH1 0x40 MLOAD DUP1 PUSH2 0x120 ADD PUSH1 0x40 MSTORE DUP1 DUP4 DUP2 MSTORE PUSH1 0x20 ADD DUP3 DUP2 MSTORE PUSH1 0x20 ADD PUSH1 0x0 DUP2 MSTORE PUSH1 0x20 ADD PUSH1 0x0 DUP2 MSTORE PUSH1 0x20 ADD PUSH1 0x0 DUP2 MSTORE PUSH1 0x20 ADD PUSH1 0x0 ISZERO ISZERO DUP2 MSTORE PUSH1 0x20 ADD PUSH1 0x40 MLOAD DUP1 PUSH1 0x40 ADD PUSH1 0x40 MSTORE DUP1 PUSH1 0x7 DUP2 MSTORE PUSH1 0x20 ADD PUSH32 0x70656E64696E6700000000000000000000000000000000000000000000000000 DUP2 MSTORE POP DUP2 MSTORE PUSH1 0x20 ADD TIMESTAMP DUP2 MSTORE PUSH1 0x20 ADD PUSH1 0x0 DUP2 MSTORE POP PUSH1 0x1 DUP4 PUSH1 0x40 MLOAD PUSH2 0xD36 SWAP2 SWAP1 PUSH2 0x13EB JUMP JUMPDEST SWAP1 DUP2 MSTORE PUSH1 0x20 ADD PUSH1 0x40 MLOAD DUP1 SWAP2 SUB SWAP1 KECCAK256 PUSH1 0x0 DUP3 ADD MLOAD DUP2 PUSH1 0x0 ADD SWAP1 DUP2 PUSH2 0xD59 SWAP2 SWAP1 PUSH2 0x16E6 JUMP JUMPDEST POP PUSH1 0x20 DUP3 ADD MLOAD DUP2 PUSH1 0x1 ADD SWAP1 DUP2 PUSH2 0xD6F SWAP2 SWAP1 PUSH2 0x16E6 JUMP JUMPDEST POP PUSH1 0x40 DUP3 ADD MLOAD DUP2 PUSH1 0x2 ADD SSTORE PUSH1 0x60 DUP3 ADD MLOAD DUP2 PUSH1 0x3 ADD SSTORE PUSH1 0x80 DUP3 ADD MLOAD DUP2 PUSH1 0x4 ADD SSTORE PUSH1 0xA0 DUP3 ADD MLOAD DUP2 PUSH1 0x5 ADD PUSH1 0x0 PUSH2 0x100 EXP DUP2 SLOAD DUP2 PUSH1 0xFF MUL NOT AND SWAP1 DUP4 ISZERO ISZERO MUL OR SWAP1 SSTORE POP PUSH1 0xC0 DUP3 ADD MLOAD DUP2 PUSH1 0x6 ADD SWAP1 DUP2 PUSH2 0xDC3 SWAP2 SWAP1 PUSH2 0x16E6 JUMP JUMPDEST POP PUSH1 0xE0 DUP3 ADD MLOAD DUP2 PUSH1 0x7 ADD SSTORE PUSH2 0x100 DUP3 ADD MLOAD DUP2 PUSH1 0x8 ADD SSTORE SWAP1 POP POP PUSH1 0x1 PUSH1 0x2 DUP4 PUSH1 0x40 MLOAD PUSH2 0xDEE SWAP2 SWAP1 PUSH2 0x13EB JUMP JUMPDEST SWAP1 DUP2 MSTORE PUSH1 0x20 ADD PUSH1 0x40 MLOAD DUP1 SWAP2 SUB SWAP1 KECCAK256 PUSH1 0x0 PUSH2 0x100 EXP DUP2 SLOAD DUP2 PUSH1 0xFF MUL NOT AND SWAP1 DUP4 ISZERO ISZERO MUL OR SWAP1 SSTORE POP PUSH1 0x3 DUP3 SWAP1 DUP1 PUSH1 0x1 DUP2 SLOAD ADD DUP1 DUP3 SSTORE DUP1 SWAP2 POP POP PUSH1 0x1 SWAP1 SUB SWAP1 PUSH1 0x0 MSTORE PUSH1 0x20 PUSH1 0x0 KECCAK256 ADD PUSH1 0x0 SWAP1 SWAP2 SWAP1 SWAP2 SWAP1 SWAP2 POP SWAP1 DUP2 PUSH2 0xE47 SWAP2 SWAP1 PUSH2 0x16E6 JUMP JUMPDEST POP DUP2 PUSH1 0x40 MLOAD PUSH2 0xE56 SWAP2 SWAP1 PUSH2 0x13EB JUMP JUMPDEST PUSH1 0x40 MLOAD DUP1 SWAP2 SUB SWAP1 KECCAK256 PUSH32 0x4936F81E3BA02847F75DCAD53C865BB75C8DA9518A9ED9FFFC48BFCA794928E7 DUP3 TIMESTAMP PUSH1 0x40 MLOAD PUSH2 0xE8F SWAP3 SWAP2 SWAP1 PUSH2 0x1988 JUMP JUMPDEST PUSH1 0x40 MLOAD DUP1 SWAP2 SUB SWAP1 LOG2 POP POP JUMP JUMPDEST PUSH1 0x40 MLOAD DUP1 PUSH2 0x120 ADD PUSH1 0x40 MSTORE DUP1 PUSH1 0x60 DUP2 MSTORE PUSH1 0x20 ADD PUSH1 0x60 DUP2 MSTORE PUSH1 0x20 ADD PUSH1 0x0 DUP2 MSTORE PUSH1 0x20 ADD PUSH1 0x0 DUP2 MSTORE PUSH1 0x20 ADD PUSH1 0x0 DUP2 MSTORE PUSH1 0x20 ADD PUSH1 0x0 ISZERO ISZERO DUP2 MSTORE PUSH1 0x20 ADD PUSH1 0x60 DUP2 MSTORE PUSH1 0x20 ADD PUSH1 0x0 DUP2 MSTORE PUSH1 0x20 ADD PUSH1 0x0 DUP2 MSTORE POP SWAP1 JUMP JUMPDEST PUSH1 0x0 DUP2 SWAP1 POP SWAP2 SWAP1 POP JUMP JUMPDEST PUSH2 0xEFC DUP2 PUSH2 0xEE9 JUMP JUMPDEST DUP3 MSTORE POP POP JUMP JUMPDEST PUSH1 0x0 PUSH1 0x20 DUP3 ADD SWAP1 POP PUSH2 0xF17 PUSH1 0x0 DUP4 ADD DUP5 PUSH2 0xEF3 JUMP JUMPDEST SWAP3 SWAP2 POP POP JUMP JUMPDEST PUSH1 0x0 PUSH20 0xFFFFFFFFFFFFFFFFFFFFFFFFFFFFFFFFFFFFFFFF DUP3 AND SWAP1 POP SWAP2 SWAP1 POP JUMP JUMPDEST PUSH1 0x0 PUSH2 0xF48 DUP3 PUSH2 0xF1D JUMP JUMPDEST SWAP1 POP SWAP2 SWAP1 POP JUMP JUMPDEST PUSH2 0xF58 DUP2 PUSH2 0xF3D JUMP JUMPDEST DUP3 MSTORE POP POP JUMP JUMPDEST PUSH1 0x0 PUSH1 0x20 DUP3 ADD SWAP1 POP PUSH2 0xF73 PUSH1 0x0 DUP4 ADD DUP5 PUSH2 0xF4F JUMP JUMPDEST SWAP3 SWAP2 POP POP JUMP JUMPDEST PUSH1 0x0 PUSH1 0x40 MLOAD SWAP1 POP SWAP1 JUMP JUMPDEST PUSH1 0x0 DUP1 REVERT JUMPDEST PUSH1 0x0 DUP1 REVERT JUMPDEST PUSH1 0x0 DUP1 REVERT JUMPDEST PUSH1 0x0 DUP1 REVERT JUMPDEST PUSH1 0x0 PUSH1 0x1F NOT PUSH1 0x1F DUP4 ADD AND SWAP1 POP SWAP2 SWAP1 POP JUMP JUMPDEST PUSH32 0x4E487B7100000000000000000000000000000000000000000000000000000000 PUSH1 0x0 MSTORE PUSH1 0x41 PUSH1 0x4 MSTORE PUSH1 0x24 PUSH1 0x0 REVERT JUMPDEST PUSH2 0xFE0 DUP3 PUSH2 0xF97 JUMP JUMPDEST DUP2 ADD DUP2 DUP2 LT PUSH8 0xFFFFFFFFFFFFFFFF DUP3 GT OR ISZERO PUSH2 0xFFF JUMPI PUSH2 0xFFE PUSH2 0xFA8 JUMP JUMPDEST JUMPDEST DUP1 PUSH1 0x40 MSTORE POP POP POP JUMP JUMPDEST PUSH1 0x0 PUSH2 0x1012 PUSH2 0xF79 JUMP JUMPDEST SWAP1 POP PUSH2 0x101E DUP3 DUP3 PUSH2 0xFD7 JUMP JUMPDEST SWAP2 SWAP1 POP JUMP JUMPDEST PUSH1 0x0 PUSH8 0xFFFFFFFFFFFFFFFF DUP3 GT ISZERO PUSH2 0x103E JUMPI PUSH2 0x103D PUSH2 0xFA8 JUMP JUMPDEST JUMPDEST PUSH2 0x1047 DUP3 PUSH2 0xF97 JUMP JUMPDEST SWAP1 POP PUSH1 0x20 DUP2 ADD SWAP1 POP SWAP2 SWAP1 POP JUMP JUMPDEST DUP3 DUP2 DUP4 CALLDATACOPY PUSH1 0x0 DUP4 DUP4 ADD MSTORE POP POP POP JUMP JUMPDEST PUSH1 0x0 PUSH2 0x1076 PUSH2 0x1071 DUP5 PUSH2 0x1023 JUMP JUMPDEST PUSH2 0x1008 JUMP JUMPDEST SWAP1 POP DUP3 DUP2 MSTORE PUSH1 0x20 DUP2 ADD DUP5 DUP5 DUP5 ADD GT ISZERO PUSH2 0x1092 JUMPI PUSH2 0x1091 PUSH2 0xF92 JUMP JUMPDEST JUMPDEST PUSH2 0x109D DUP5 DUP3 DUP6 PUSH2 0x1054 JUMP JUMPDEST POP SWAP4 SWAP3 POP POP POP JUMP JUMPDEST PUSH1 0x0 DUP3 PUSH1 0x1F DUP4 ADD SLT PUSH2 0x10BA JUMPI PUSH2 0x10B9 PUSH2 0xF8D JUMP JUMPDEST JUMPDEST DUP2 CALLDATALOAD PUSH2 0x10CA DUP5 DUP3 PUSH1 0x20 DUP7 ADD PUSH2 0x1063 JUMP JUMPDEST SWAP2 POP POP SWAP3 SWAP2 POP POP JUMP JUMPDEST PUSH1 0x0 PUSH1 0x20 DUP3 DUP5 SUB SLT ISZERO PUSH2 0x10E9 JUMPI PUSH2 0x10E8 PUSH2 0xF83 JUMP JUMPDEST JUMPDEST PUSH1 0x0 DUP3 ADD CALLDATALOAD PUSH8 0xFFFFFFFFFFFFFFFF DUP2 GT ISZERO PUSH2 0x1107 JUMPI PUSH2 0x1106 PUSH2 0xF88 JUMP JUMPDEST JUMPDEST PUSH2 0x1113 DUP5 DUP3 DUP6 ADD PUSH2 0x10A5 JUMP JUMPDEST SWAP2 POP POP SWAP3 SWAP2 POP POP JUMP JUMPDEST PUSH1 0x0 DUP1 PUSH1 0x40 DUP4 DUP6 SUB SLT ISZERO PUSH2 0x1133 JUMPI PUSH2 0x1132 PUSH2 0xF83 JUMP JUMPDEST JUMPDEST PUSH1 0x0 DUP4 ADD CALLDATALOAD PUSH8 0xFFFFFFFFFFFFFFFF DUP2 GT ISZERO PUSH2 0x1151 JUMPI PUSH2 0x1150 PUSH2 0xF88 JUMP JUMPDEST JUMPDEST PUSH2 0x115D DUP6 DUP3 DUP7 ADD PUSH2 0x10A5 JUMP JUMPDEST SWAP3 POP POP PUSH1 0x20 DUP4 ADD CALLDATALOAD PUSH8 0xFFFFFFFFFFFFFFFF DUP2 GT ISZERO PUSH2 0x117E JUMPI PUSH2 0x117D PUSH2 0xF88 JUMP JUMPDEST JUMPDEST PUSH2 0x118A DUP6 DUP3 DUP7 ADD PUSH2 0x10A5 JUMP JUMPDEST SWAP2 POP POP SWAP3 POP SWAP3 SWAP1 POP JUMP JUMPDEST PUSH1 0x0 DUP2 MLOAD SWAP1 POP SWAP2 SWAP1 POP JUMP JUMPDEST PUSH1 0x0 DUP3 DUP3 MSTORE PUSH1 0x20 DUP3 ADD SWAP1 POP SWAP3 SWAP2 POP POP JUMP JUMPDEST PUSH1 0x0 JUMPDEST DUP4 DUP2 LT ISZERO PUSH2 0x11CE JUMPI DUP1 DUP3 ADD MLOAD DUP2 DUP5 ADD MSTORE PUSH1 0x20 DUP2 ADD SWAP1 POP PUSH2 0x11B3 JUMP JUMPDEST PUSH1 0x0 DUP5 DUP5 ADD MSTORE POP POP POP POP JUMP JUMPDEST PUSH1 0x0 PUSH2 0x11E5 DUP3 PUSH2 0x1194 JUMP JUMPDEST PUSH2 0x11EF DUP2 DUP6 PUSH2 0x119F JUMP JUMPDEST SWAP4 POP PUSH2 0x11FF DUP2 DUP6 PUSH1 0x20 DUP7 ADD PUSH2 0x11B0 JUMP JUMPDEST PUSH2 0x1208 DUP2 PUSH2 0xF97 JUMP JUMPDEST DUP5 ADD SWAP2 POP POP SWAP3 SWAP2 POP POP JUMP JUMPDEST PUSH2 0x121C DUP2 PUSH2 0xEE9 JUMP JUMPDEST DUP3 MSTORE POP POP JUMP JUMPDEST PUSH1 0x0 DUP2 ISZERO ISZERO SWAP1 POP SWAP2 SWAP1 POP JUMP JUMPDEST PUSH2 0x1237 DUP2 PUSH2 0x1222 JUMP JUMPDEST DUP3 MSTORE POP POP JUMP JUMPDEST PUSH1 0x0 PUSH2 0x120 DUP4 ADD PUSH1 0x0 DUP4 ADD MLOAD DUP5 DUP3 SUB PUSH1 0x0 DUP7 ADD MSTORE PUSH2 0x125B DUP3 DUP3 PUSH2 0x11DA JUMP JUMPDEST SWAP2 POP POP PUSH1 0x20 DUP4 ADD MLOAD DUP5 DUP3 SUB PUSH1 0x20 DUP7 ADD MSTORE PUSH2 0x1275 DUP3 DUP3 PUSH2 0x11DA JUMP JUMPDEST SWAP2 POP POP PUSH1 0x40 DUP4 ADD MLOAD PUSH2 0x128A PUSH1 0x40 DUP7 ADD DUP3 PUSH2 0x1213 JUMP JUMPDEST POP PUSH1 0x60 DUP4 ADD MLOAD PUSH2 0x129D PUSH1 0x60 DUP7 ADD DUP3 PUSH2 0x1213 JUMP JUMPDEST POP PUSH1 0x80 DUP4 ADD MLOAD PUSH2 0x12B0 PUSH1 0x80 DUP7 ADD DUP3 PUSH2 0x1213 JUMP JUMPDEST POP PUSH1 0xA0 DUP4 ADD MLOAD PUSH2 0x12C3 PUSH1 0xA0 DUP7 ADD DUP3 PUSH2 0x122E JUMP JUMPDEST POP PUSH1 0xC0 DUP4 ADD MLOAD DUP5 DUP3 SUB PUSH1 0xC0 DUP7 ADD MSTORE PUSH2 0x12DB DUP3 DUP3 PUSH2 0x11DA JUMP JUMPDEST SWAP2 POP POP PUSH1 0xE0 DUP4 ADD MLOAD PUSH2 0x12F0 PUSH1 0xE0 DUP7 ADD DUP3 PUSH2 0x1213 JUMP JUMPDEST POP PUSH2 0x100 DUP4 ADD MLOAD PUSH2 0x1305 PUSH2 0x100 DUP7 ADD DUP3 PUSH2 0x1213 JUMP JUMPDEST POP DUP1 SWAP2 POP POP SWAP3 SWAP2 POP POP JUMP JUMPDEST PUSH1 0x0 PUSH1 0x20 DUP3 ADD SWAP1 POP DUP2 DUP2 SUB PUSH1 0x0 DUP4 ADD MSTORE PUSH2 0x132A DUP2 DUP5 PUSH2 0x123D JUMP JUMPDEST SWAP1 POP SWAP3 SWAP2 POP POP JUMP JUMPDEST PUSH1 0x0 DUP3 DUP3 MSTORE PUSH1 0x20 DUP3 ADD SWAP1 POP SWAP3 SWAP2 POP POP JUMP JUMPDEST PUSH32 0x4E6F7420617574686F72697A6564000000000000000000000000000000000000 PUSH1 0x0 DUP3 ADD MSTORE POP JUMP JUMPDEST PUSH1 0x0 PUSH2 0x1379 PUSH1 0xE DUP4 PUSH2 0x1332 JUMP JUMPDEST SWAP2 POP PUSH2 0x1384 DUP3 PUSH2 0x1343 JUMP JUMPDEST PUSH1 0x20 DUP3 ADD SWAP1 POP SWAP2 SWAP1 POP JUMP JUMPDEST PUSH1 0x0 PUSH1 0x20 DUP3 ADD SWAP1 POP DUP2 DUP2 SUB PUSH1 0x0 DUP4 ADD MSTORE PUSH2 0x13A8 DUP2 PUSH2 0x136C JUMP JUMPDEST SWAP1 POP SWAP2 SWAP1 POP JUMP JUMPDEST PUSH1 0x0 DUP2 SWAP1 POP SWAP3 SWAP2 POP POP JUMP JUMPDEST PUSH1 0x0 PUSH2 0x13C5 DUP3 PUSH2 0x1194 JUMP JUMPDEST PUSH2 0x13CF DUP2 DUP6 PUSH2 0x13AF JUMP JUMPDEST SWAP4 POP PUSH2 0x13DF DUP2 DUP6 PUSH1 0x20 DUP7 ADD PUSH2 0x11B0 JUMP JUMPDEST DUP1 DUP5 ADD SWAP2 POP POP SWAP3 SWAP2 POP POP JUMP JUMPDEST PUSH1 0x0 PUSH2 0x13F7 DUP3 DUP5 PUSH2 0x13BA JUMP JUMPDEST SWAP2 POP DUP2 SWAP1 POP SWAP3 SWAP2 POP POP JUMP JUMPDEST PUSH32 0x4361736520646F6573206E6F7420657869737400000000000000000000000000 PUSH1 0x0 DUP3 ADD MSTORE POP JUMP JUMPDEST PUSH1 0x0 PUSH2 0x1438 PUSH1 0x13 DUP4 PUSH2 0x1332 JUMP JUMPDEST SWAP2 POP PUSH2 0x1443 DUP3 PUSH2 0x1402 JUMP JUMPDEST PUSH1 0x20 DUP3 ADD SWAP1 POP SWAP2 SWAP1 POP JUMP JUMPDEST PUSH1 0x0 PUSH1 0x20 DUP3 ADD SWAP1 POP DUP2 DUP2 SUB PUSH1 0x0 DUP4 ADD MSTORE PUSH2 0x1467 DUP2 PUSH2 0x142B JUMP JUMPDEST SWAP1 POP SWAP2 SWAP1 POP JUMP JUMPDEST PUSH32 0x4361736520616C72656164792064656369646564000000000000000000000000 PUSH1 0x0 DUP3 ADD MSTORE POP JUMP JUMPDEST PUSH1 0x0 PUSH2 0x14A4 PUSH1 0x14 DUP4 PUSH2 0x1332 JUMP JUMPDEST SWAP2 POP PUSH2 0x14AF DUP3 PUSH2 0x146E JUMP JUMPDEST PUSH1 0x20 DUP3 ADD SWAP1 POP SWAP2 SWAP1 POP JUMP JUMPDEST PUSH1 0x0 PUSH1 0x20 DUP3 ADD SWAP1 POP DUP2 DUP2 SUB PUSH1 0x0 DUP4 ADD MSTORE PUSH2 0x14D3 DUP2 PUSH2 0x1497 JUMP JUMPDEST SWAP1 POP SWAP2 SWAP1 POP JUMP JUMPDEST PUSH32 0x4E487B7100000000000000000000000000000000000000000000000000000000 PUSH1 0x0 MSTORE PUSH1 0x22 PUSH1 0x4 MSTORE PUSH1 0x24 PUSH1 0x0 REVERT JUMPDEST PUSH1 0x0 PUSH1 0x2 DUP3 DIV SWAP1 POP PUSH1 0x1 DUP3 AND DUP1 PUSH2 0x1521 JUMPI PUSH1 0x7F DUP3 AND SWAP2 POP JUMPDEST PUSH1 0x20 DUP3 LT DUP2 SUB PUSH2 0x1534 JUMPI PUSH2 0x1533 PUSH2 0x14DA JUMP JUMPDEST JUMPDEST POP SWAP2 SWAP1 POP JUMP JUMPDEST PUSH1 0x0 DUP2 SWAP1 POP DUP2 PUSH1 0x0 MSTORE PUSH1 0x20 PUSH1 0x0 KECCAK256 SWAP1 POP SWAP2 SWAP1 POP JUMP JUMPDEST PUSH1 0x0 PUSH1 0x20 PUSH1 0x1F DUP4 ADD DIV SWAP1 POP SWAP2 SWAP1 POP JUMP JUMPDEST PUSH1 0x0 DUP3 DUP3 SHL SWAP1 POP SWAP3 SWAP2 POP POP JUMP JUMPDEST PUSH1 0x0 PUSH1 0x8 DUP4 MUL PUSH2 0x159C PUSH32 0xFFFFFFFFFFFFFFFFFFFFFFFFFFFFFFFFFFFFFFFFFFFFFFFFFFFFFFFFFFFFFFFF DUP3 PUSH2 0x155F JUMP JUMPDEST PUSH2 0x15A6 DUP7 DUP4 PUSH2 0x155F JUMP JUMPDEST SWAP6 POP DUP1 NOT DUP5 AND SWAP4 POP DUP1 DUP7 AND DUP5 OR SWAP3 POP POP POP SWAP4 SWAP3 POP POP POP JUMP JUMPDEST PUSH1 0x0 DUP2 SWAP1 POP SWAP2 SWAP1 POP JUMP JUMPDEST PUSH1 0x0 PUSH2 0x15E3 PUSH2 0x15DE PUSH2 0x15D9 DUP5 PUSH2 0xEE9 JUMP JUMPDEST PUSH2 0x15BE JUMP JUMPDEST PUSH2 0xEE9 JUMP JUMPDEST SWAP1 POP SWAP2 SWAP1 POP JUMP JUMPDEST PUSH1 0x0 DUP2 SWAP1 POP SWAP2 SWAP1 POP JUMP JUMPDEST PUSH2 0x15FD DUP4 PUSH2 0x15C8 JUMP JUMPDEST PUSH2 0x1611 PUSH2 0x1609 DUP3 PUSH2 0x15EA JUMP JUMPDEST DUP5 DUP5 SLOAD PUSH2 0x156C JUMP JUMPDEST DUP3 SSTORE POP POP POP POP JUMP JUMPDEST PUSH1 0x0 SWAP1 JUMP JUMPDEST PUSH2 0x1626 PUSH2 0x1619 JUMP JUMPDEST PUSH2 0x1631 DUP2 DUP5 DUP5 PUSH2 0x15F4 JUMP JUMPDEST POP POP POP JUMP JUMPDEST JUMPDEST DUP2 DUP2 LT ISZERO PUSH2 0x1655 JUMPI PUSH2 0x164A PUSH1 0x0 DUP3 PUSH2 0x161E JUMP JUMPDEST PUSH1 0x1 DUP2 ADD SWAP1 POP PUSH2 0x1637 JUMP JUMPDEST POP POP JUMP JUMPDEST PUSH1 0x1F DUP3 GT ISZERO PUSH2 0x169A JUMPI PUSH2 0x166B DUP2 PUSH2 0x153A JUMP JUMPDEST PUSH2 0x1674 DUP5 PUSH2 0x154F JUMP JUMPDEST DUP2 ADD PUSH1 0x20 DUP6 LT ISZERO PUSH2 0x1683 JUMPI DUP2 SWAP1 POP JUMPDEST PUSH2 0x1697 PUSH2 0x168F DUP6 PUSH2 0x154F JUMP JUMPDEST DUP4 ADD DUP3 PUSH2 0x1636 JUMP JUMPDEST POP POP JUMPDEST POP POP POP JUMP JUMPDEST PUSH1 0x0 DUP3 DUP3 SHR SWAP1 POP SWAP3 SWAP2 POP POP JUMP JUMPDEST PUSH1 0x0 PUSH2 0x16BD PUSH1 0x0 NOT DUP5 PUSH1 0x8 MUL PUSH2 0x169F JUMP JUMPDEST NOT DUP1 DUP4 AND SWAP2 POP POP SWAP3 SWAP2 POP POP JUMP JUMPDEST PUSH1 0x0 PUSH2 0x16D6 DUP4 DUP4 PUSH2 0x16AC JUMP JUMPDEST SWAP2 POP DUP3 PUSH1 0x2 MUL DUP3 OR SWAP1 POP SWAP3 SWAP2 POP POP JUMP JUMPDEST PUSH2 0x16EF DUP3 PUSH2 0x1194 JUMP JUMPDEST PUSH8 0xFFFFFFFFFFFFFFFF DUP2 GT ISZERO PUSH2 0x1708 JUMPI PUSH2 0x1707 PUSH2 0xFA8 JUMP JUMPDEST JUMPDEST PUSH2 0x1712 DUP3 SLOAD PUSH2 0x1509 JUMP JUMPDEST PUSH2 0x171D DUP3 DUP3 DUP6 PUSH2 0x1659 JUMP JUMPDEST PUSH1 0x0 PUSH1 0x20 SWAP1 POP PUSH1 0x1F DUP4 GT PUSH1 0x1 DUP2 EQ PUSH2 0x1750 JUMPI PUSH1 0x0 DUP5 ISZERO PUSH2 0x173E JUMPI DUP3 DUP8 ADD MLOAD SWAP1 POP JUMPDEST PUSH2 0x1748 DUP6 DUP3 PUSH2 0x16CA JUMP JUMPDEST DUP7 SSTORE POP PUSH2 0x17B0 JUMP JUMPDEST PUSH1 0x1F NOT DUP5 AND PUSH2 0x175E DUP7 PUSH2 0x153A JUMP JUMPDEST PUSH1 0x0 JUMPDEST DUP3 DUP2 LT ISZERO PUSH2 0x1786 JUMPI DUP5 DUP10 ADD MLOAD DUP3 SSTORE PUSH1 0x1 DUP3 ADD SWAP2 POP PUSH1 0x20 DUP6 ADD SWAP5 POP PUSH1 0x20 DUP2 ADD SWAP1 POP PUSH2 0x1761 JUMP JUMPDEST DUP7 DUP4 LT ISZERO PUSH2 0x17A3 JUMPI DUP5 DUP10 ADD MLOAD PUSH2 0x179F PUSH1 0x1F DUP10 AND DUP3 PUSH2 0x16AC JUMP JUMPDEST DUP4 SSTORE POP JUMPDEST PUSH1 0x1 PUSH1 0x2 DUP9 MUL ADD DUP9 SSTORE POP POP POP JUMPDEST POP POP POP POP POP POP JUMP JUMPDEST PUSH1 0x0 DUP2 SLOAD PUSH2 0x17C5 DUP2 PUSH2 0x1509 JUMP JUMPDEST PUSH2 0x17CF DUP2 DUP7 PUSH2 0x1332 JUMP JUMPDEST SWAP5 POP PUSH1 0x1 DUP3 AND PUSH1 0x0 DUP2 EQ PUSH2 0x17EA JUMPI PUSH1 0x1 DUP2 EQ PUSH2 0x1800 JUMPI PUSH2 0x1833 JUMP JUMPDEST PUSH1 0xFF NOT DUP4 AND DUP7 MSTORE DUP2 ISZERO ISZERO PUSH1 0x20 MUL DUP7 ADD SWAP4 POP PUSH2 0x1833 JUMP JUMPDEST PUSH2 0x1809 DUP6 PUSH2 0x153A JUMP JUMPDEST PUSH1 0x0 JUMPDEST DUP4 DUP2 LT ISZERO PUSH2 0x182B JUMPI DUP2 SLOAD DUP2 DUP10 ADD MSTORE PUSH1 0x1 DUP3 ADD SWAP2 POP PUSH1 0x20 DUP2 ADD SWAP1 POP PUSH2 0x180C JUMP JUMPDEST DUP1 DUP9 ADD SWAP6 POP POP POP JUMPDEST POP POP POP SWAP3 SWAP2 POP POP JUMP JUMPDEST PUSH1 0x0 PUSH1 0x40 DUP3 ADD SWAP1 POP DUP2 DUP2 SUB PUSH1 0x0 DUP4 ADD MSTORE PUSH2 0x1856 DUP2 DUP6 PUSH2 0x17B8 JUMP JUMPDEST SWAP1 POP PUSH2 0x1865 PUSH1 0x20 DUP4 ADD DUP5 PUSH2 0xEF3 JUMP JUMPDEST SWAP4 SWAP3 POP POP POP JUMP JUMPDEST PUSH32 0x4E487B7100000000000000000000000000000000000000000000000000000000 PUSH1 0x0 MSTORE PUSH1 0x11 PUSH1 0x4 MSTORE PUSH1 0x24 PUSH1 0x0 REVERT JUMPDEST PUSH1 0x0 PUSH2 0x18A6 DUP3 PUSH2 0xEE9 JUMP JUMPDEST SWAP2 POP PUSH32 0xFFFFFFFFFFFFFFFFFFFFFFFFFFFFFFFFFFFFFFFFFFFFFFFFFFFFFFFFFFFFFFFF DUP3 SUB PUSH2 0x18D8 JUMPI PUSH2 0x18D7 PUSH2 0x186C JUMP JUMPDEST JUMPDEST PUSH1 0x1 DUP3 ADD SWAP1 POP SWAP2 SWAP1 POP JUMP JUMPDEST PUSH32 0x496E76616C696420766F7465206F7074696F6E00000000000000000000000000 PUSH1 0x0 DUP3 ADD MSTORE POP JUMP JUMPDEST PUSH1 0x0 PUSH2 0x1919 PUSH1 0x13 DUP4 PUSH2 0x1332 JUMP JUMPDEST SWAP2 POP PUSH2 0x1924 DUP3 PUSH2 0x18E3 JUMP JUMPDEST PUSH1 0x20 DUP3 ADD SWAP1 POP SWAP2 SWAP1 POP JUMP JUMPDEST PUSH1 0x0 PUSH1 0x20 DUP3 ADD SWAP1 POP DUP2 DUP2 SUB PUSH1 0x0 DUP4 ADD MSTORE PUSH2 0x1948 DUP2 PUSH2 0x190C JUMP JUMPDEST SWAP1 POP SWAP2 SWAP1 POP JUMP JUMPDEST PUSH1 0x0 PUSH2 0x195A DUP3 PUSH2 0x1194 JUMP JUMPDEST PUSH2 0x1964 DUP2 DUP6 PUSH2 0x1332 JUMP JUMPDEST SWAP4 POP PUSH2 0x1974 DUP2 DUP6 PUSH1 0x20 DUP7 ADD PUSH2 0x11B0 JUMP JUMPDEST PUSH2 0x197D DUP2 PUSH2 0xF97 JUMP JUMPDEST DUP5 ADD SWAP2 POP POP SWAP3 SWAP2 POP POP JUMP JUMPDEST PUSH1 0x0 PUSH1 0x40 DUP3 ADD SWAP1 POP DUP2 DUP2 SUB PUSH1 0x0 DUP4 ADD MSTORE PUSH2 0x19A2 DUP2 DUP6 PUSH2 0x194F JUMP JUMPDEST SWAP1 POP PUSH2 0x19B1 PUSH1 0x20 DUP4 ADD DUP5 PUSH2 0xEF3 JUMP JUMPDEST SWAP4 SWAP3 POP POP POP JUMP JUMPDEST PUSH32 0x4361736520616C72656164792065786973747300000000000000000000000000 PUSH1 0x0 DUP3 ADD MSTORE POP JUMP JUMPDEST PUSH1 0x0 PUSH2 0x19EE PUSH1 0x13 DUP4 PUSH2 0x1332 JUMP JUMPDEST SWAP2 POP PUSH2 0x19F9 DUP3 PUSH2 0x19B8 JUMP JUMPDEST PUSH1 0x20 DUP3 ADD SWAP1 POP SWAP2 SWAP1 POP JUMP JUMPDEST PUSH1 0x0 PUSH1 0x20 DUP3 ADD SWAP1 POP DUP2 DUP2 SUB PUSH1 0x0 DUP4 ADD MSTORE PUSH2 0x1A1D DUP2 PUSH2 0x19E1 JUMP JUMPDEST SWAP1 POP SWAP2 SWAP1 POP JUMP JUMPDEST PUSH32 0x4361736520494420726571756972656400000000000000000000000000000000 PUSH1 0x0 DUP3 ADD MSTORE POP JUMP JUMPDEST PUSH1 0x0 PUSH2 0x1A5A PUSH1 0x10 DUP4 PUSH2 0x1332 JUMP JUMPDEST SWAP2 POP PUSH2 0x1A65 DUP3 PUSH2 0x1A24 JUMP JUMPDEST PUSH1 0x20 DUP3 ADD SWAP1 POP SWAP2 SWAP1 POP JUMP JUMPDEST PUSH1 0x0 PUSH1 0x20 DUP3 ADD SWAP1 POP DUP2 DUP2 SUB PUSH1 0x0 DUP4 ADD MSTORE PUSH2 0x1A89 DUP2 PUSH2 0x1A4D JUMP JUMPDEST SWAP1 POP SWAP2 SWAP1 POP JUMP JUMPDEST PUSH32 0x436F6D706C61696E742068617368207265717569726564000000000000000000 PUSH1 0x0 DUP3 ADD MSTORE POP JUMP JUMPDEST PUSH1 0x0 PUSH2 0x1AC6 PUSH1 0x17 DUP4 PUSH2 0x1332 JUMP JUMPDEST SWAP2 POP PUSH2 0x1AD1 DUP3 PUSH2 0x1A90 JUMP JUMPDEST PUSH1 0x20 DUP3 ADD SWAP1 POP SWAP2 SWAP1 POP JUMP JUMPDEST PUSH1 0x0 PUSH1 0x20 DUP3 ADD SWAP1 POP DUP2 DUP2 SUB PUSH1 0x0 DUP4 ADD MSTORE PUSH2 0x1AF5 DUP2 PUSH2 0x1AB9 JUMP JUMPDEST SWAP1 POP SWAP2 SWAP1 POP JUMP INVALID LOG2 PUSH5 0x6970667358 0x22 SLT KECCAK256 0xDC 0xAC 0xCF 0xA6 STOP 0x22 ORIGIN 0x28 0xD9 0xE3 SHR AND 0xAD 0x5E EXTCODECOPY SSTORE 0xE5 0xCF CODECOPY 0xE6 0xB4 DUP3 0xDB CODECOPY PREVRANDAO STOP SSTORE 0xF 0xC7 0xB8 0xB1 0xE0 PUSH5 0x736F6C6343 STOP ADDMOD SGT STOP CALLER "},"methodIdentifiers":{"castVote(string,string)":"c479fc91","fileCase(string,string)":"e9e63ac1","finalizeDecision(string)":"9d74df76","getCase(string)":"d4e06826","getCaseCount()":"6c08faf7","owner()":"8da5cb5b"}}}}}